{
	"contracts/contract2.sol": {
		"parentcontract": {
			"abi": [
				{
					"inputs": [
						{
							"internalType": "address",
							"name": "add",
							"type": "address"
						}
					],
					"stateMutability": "nonpayable",
					"type": "constructor"
				},
				{
					"inputs": [],
					"name": "getcontractmessage",
					"outputs": [
						{
							"internalType": "string",
							"name": "",
							"type": "string"
						}
					],
					"stateMutability": "view",
					"type": "function"
				}
			],
			"devdoc": {
				"kind": "dev",
				"methods": {},
				"version": 1
			},
			"evm": {
				"assembly": "    /* \"contracts/contract2.sol\":161:437  contract parentcontract{... */\n  mstore(0x40, 0x80)\n    /* \"contracts/contract2.sol\":231:294  constructor (address add){... */\n  callvalue\n  dup1\n  iszero\n  tag_1\n  jumpi\n  0x00\n  dup1\n  revert\ntag_1:\n  pop\n  mload(0x40)\n  sub(codesize, bytecodeSize)\n  dup1\n  bytecodeSize\n  dup4\n  codecopy\n  dup2\n  dup2\n  add\n  0x40\n  mstore\n  dup2\n  add\n  swap1\n  tag_2\n  swap2\n  swap1\n  tag_3\n  jump\t// in\ntag_2:\n    /* \"contracts/contract2.sol\":283:286  add */\n  dup1\n    /* \"contracts/contract2.sol\":267:282  contractaddress */\n  0x00\n  dup1\n    /* \"contracts/contract2.sol\":267:286  contractaddress=add */\n  0x0100\n  exp\n  dup2\n  sload\n  dup2\n  0xffffffffffffffffffffffffffffffffffffffff\n  mul\n  not\n  and\n  swap1\n  dup4\n  0xffffffffffffffffffffffffffffffffffffffff\n  and\n  mul\n  or\n  swap1\n  sstore\n  pop\n    /* \"contracts/contract2.sol\":231:294  constructor (address add){... */\n  pop\n    /* \"contracts/contract2.sol\":161:437  contract parentcontract{... */\n  jump(tag_6)\n    /* \"#utility.yul\":88:205   */\ntag_8:\n    /* \"#utility.yul\":197:198   */\n  0x00\n    /* \"#utility.yul\":194:195   */\n  dup1\n    /* \"#utility.yul\":187:199   */\n  revert\n    /* \"#utility.yul\":334:460   */\ntag_10:\n    /* \"#utility.yul\":371:378   */\n  0x00\n    /* \"#utility.yul\":411:453   */\n  0xffffffffffffffffffffffffffffffffffffffff\n    /* \"#utility.yul\":404:409   */\n  dup3\n    /* \"#utility.yul\":400:454   */\n  and\n    /* \"#utility.yul\":389:454   */\n  swap1\n  pop\n    /* \"#utility.yul\":334:460   */\n  swap2\n  swap1\n  pop\n  jump\t// out\n    /* \"#utility.yul\":466:562   */\ntag_11:\n    /* \"#utility.yul\":503:510   */\n  0x00\n    /* \"#utility.yul\":532:556   */\n  tag_20\n    /* \"#utility.yul\":550:555   */\n  dup3\n    /* \"#utility.yul\":532:556   */\n  tag_10\n  jump\t// in\ntag_20:\n    /* \"#utility.yul\":521:556   */\n  swap1\n  pop\n    /* \"#utility.yul\":466:562   */\n  swap2\n  swap1\n  pop\n  jump\t// out\n    /* \"#utility.yul\":568:690   */\ntag_12:\n    /* \"#utility.yul\":641:665   */\n  tag_22\n    /* \"#utility.yul\":659:664   */\n  dup2\n    /* \"#utility.yul\":641:665   */\n  tag_11\n  jump\t// in\ntag_22:\n    /* \"#utility.yul\":634:639   */\n  dup2\n    /* \"#utility.yul\":631:666   */\n  eq\n    /* \"#utility.yul\":621:684   */\n  tag_23\n  jumpi\n    /* \"#utility.yul\":680:681   */\n  0x00\n    /* \"#utility.yul\":677:678   */\n  dup1\n    /* \"#utility.yul\":670:682   */\n  revert\n    /* \"#utility.yul\":621:684   */\ntag_23:\n    /* \"#utility.yul\":568:690   */\n  pop\n  jump\t// out\n    /* \"#utility.yul\":696:839   */\ntag_13:\n    /* \"#utility.yul\":753:758   */\n  0x00\n    /* \"#utility.yul\":784:790   */\n  dup2\n    /* \"#utility.yul\":778:791   */\n  mload\n    /* \"#utility.yul\":769:791   */\n  swap1\n  pop\n    /* \"#utility.yul\":800:833   */\n  tag_25\n    /* \"#utility.yul\":827:832   */\n  dup2\n    /* \"#utility.yul\":800:833   */\n  tag_12\n  jump\t// in\ntag_25:\n    /* \"#utility.yul\":696:839   */\n  swap3\n  swap2\n  pop\n  pop\n  jump\t// out\n    /* \"#utility.yul\":845:1196   */\ntag_3:\n    /* \"#utility.yul\":915:921   */\n  0x00\n    /* \"#utility.yul\":964:966   */\n  0x20\n    /* \"#utility.yul\":952:961   */\n  dup3\n    /* \"#utility.yul\":943:950   */\n  dup5\n    /* \"#utility.yul\":939:962   */\n  sub\n    /* \"#utility.yul\":935:967   */\n  slt\n    /* \"#utility.yul\":932:1051   */\n  iszero\n  tag_27\n  jumpi\n    /* \"#utility.yul\":970:1049   */\n  tag_28\n  tag_8\n  jump\t// in\ntag_28:\n    /* \"#utility.yul\":932:1051   */\ntag_27:\n    /* \"#utility.yul\":1090:1091   */\n  0x00\n    /* \"#utility.yul\":1115:1179   */\n  tag_29\n    /* \"#utility.yul\":1171:1178   */\n  dup5\n    /* \"#utility.yul\":1162:1168   */\n  dup3\n    /* \"#utility.yul\":1151:1160   */\n  dup6\n    /* \"#utility.yul\":1147:1169   */\n  add\n    /* \"#utility.yul\":1115:1179   */\n  tag_13\n  jump\t// in\ntag_29:\n    /* \"#utility.yul\":1105:1179   */\n  swap2\n  pop\n    /* \"#utility.yul\":1061:1189   */\n  pop\n    /* \"#utility.yul\":845:1196   */\n  swap3\n  swap2\n  pop\n  pop\n  jump\t// out\n    /* \"contracts/contract2.sol\":161:437  contract parentcontract{... */\ntag_6:\n  dataSize(sub_0)\n  dup1\n  dataOffset(sub_0)\n  0x00\n  codecopy\n  0x00\n  return\nstop\n\nsub_0: assembly {\n        /* \"contracts/contract2.sol\":161:437  contract parentcontract{... */\n      mstore(0x40, 0x80)\n      callvalue\n      dup1\n      iszero\n      tag_1\n      jumpi\n      0x00\n      dup1\n      revert\n    tag_1:\n      pop\n      jumpi(tag_2, lt(calldatasize, 0x04))\n      shr(0xe0, calldataload(0x00))\n      dup1\n      0x44337627\n      eq\n      tag_3\n      jumpi\n    tag_2:\n      0x00\n      dup1\n      revert\n        /* \"contracts/contract2.sol\":300:434  function getcontractmessage()public view returns(string memory){... */\n    tag_3:\n      tag_4\n      tag_5\n      jump\t// in\n    tag_4:\n      mload(0x40)\n      tag_6\n      swap2\n      swap1\n      tag_7\n      jump\t// in\n    tag_6:\n      mload(0x40)\n      dup1\n      swap2\n      sub\n      swap1\n      return\n    tag_5:\n        /* \"contracts/contract2.sol\":349:362  string memory */\n      0x60\n        /* \"contracts/contract2.sol\":397:412  contractaddress */\n      0x00\n      dup1\n      sload\n      swap1\n      0x0100\n      exp\n      swap1\n      div\n      0xffffffffffffffffffffffffffffffffffffffff\n      and\n        /* \"contracts/contract2.sol\":380:424  messagesContract(contractaddress).getmessage */\n      0xffffffffffffffffffffffffffffffffffffffff\n      and\n      0x1ae466ba\n        /* \"contracts/contract2.sol\":380:426  messagesContract(contractaddress).getmessage() */\n      mload(0x40)\n      dup2\n      0xffffffff\n      and\n      0xe0\n      shl\n      dup2\n      mstore\n      0x04\n      add\n      0x00\n      mload(0x40)\n      dup1\n      dup4\n      sub\n      dup2\n      dup7\n      gas\n      staticcall\n      iszero\n      dup1\n      iszero\n      tag_10\n      jumpi\n      returndatasize\n      0x00\n      dup1\n      returndatacopy\n      revert(0x00, returndatasize)\n    tag_10:\n      pop\n      pop\n      pop\n      pop\n      mload(0x40)\n      returndatasize\n      0x00\n      dup3\n      returndatacopy\n      returndatasize\n      not(0x1f)\n      0x1f\n      dup3\n      add\n      and\n      dup3\n      add\n      dup1\n      0x40\n      mstore\n      pop\n      dup2\n      add\n      swap1\n      tag_11\n      swap2\n      swap1\n      tag_12\n      jump\t// in\n    tag_11:\n        /* \"contracts/contract2.sol\":373:426  return messagesContract(contractaddress).getmessage() */\n      swap1\n      pop\n        /* \"contracts/contract2.sol\":300:434  function getcontractmessage()public view returns(string memory){... */\n      swap1\n      jump\t// out\n        /* \"#utility.yul\":7:106   */\n    tag_13:\n        /* \"#utility.yul\":59:65   */\n      0x00\n        /* \"#utility.yul\":93:98   */\n      dup2\n        /* \"#utility.yul\":87:99   */\n      mload\n        /* \"#utility.yul\":77:99   */\n      swap1\n      pop\n        /* \"#utility.yul\":7:106   */\n      swap2\n      swap1\n      pop\n      jump\t// out\n        /* \"#utility.yul\":112:281   */\n    tag_14:\n        /* \"#utility.yul\":196:207   */\n      0x00\n        /* \"#utility.yul\":230:236   */\n      dup3\n        /* \"#utility.yul\":225:228   */\n      dup3\n        /* \"#utility.yul\":218:237   */\n      mstore\n        /* \"#utility.yul\":270:274   */\n      0x20\n        /* \"#utility.yul\":265:268   */\n      dup3\n        /* \"#utility.yul\":261:275   */\n      add\n        /* \"#utility.yul\":246:275   */\n      swap1\n      pop\n        /* \"#utility.yul\":112:281   */\n      swap3\n      swap2\n      pop\n      pop\n      jump\t// out\n        /* \"#utility.yul\":287:426   */\n    tag_15:\n        /* \"#utility.yul\":376:382   */\n      dup3\n        /* \"#utility.yul\":371:374   */\n      dup2\n        /* \"#utility.yul\":366:369   */\n      dup4\n        /* \"#utility.yul\":360:383   */\n      mcopy\n        /* \"#utility.yul\":417:418   */\n      0x00\n        /* \"#utility.yul\":408:414   */\n      dup4\n        /* \"#utility.yul\":403:406   */\n      dup4\n        /* \"#utility.yul\":399:415   */\n      add\n        /* \"#utility.yul\":392:419   */\n      mstore\n        /* \"#utility.yul\":287:426   */\n      pop\n      pop\n      pop\n      jump\t// out\n        /* \"#utility.yul\":432:534   */\n    tag_16:\n        /* \"#utility.yul\":473:479   */\n      0x00\n        /* \"#utility.yul\":524:526   */\n      0x1f\n        /* \"#utility.yul\":520:527   */\n      not\n        /* \"#utility.yul\":515:517   */\n      0x1f\n        /* \"#utility.yul\":508:513   */\n      dup4\n        /* \"#utility.yul\":504:518   */\n      add\n        /* \"#utility.yul\":500:528   */\n      and\n        /* \"#utility.yul\":490:528   */\n      swap1\n      pop\n        /* \"#utility.yul\":432:534   */\n      swap2\n      swap1\n      pop\n      jump\t// out\n        /* \"#utility.yul\":540:917   */\n    tag_17:\n        /* \"#utility.yul\":628:631   */\n      0x00\n        /* \"#utility.yul\":656:695   */\n      tag_35\n        /* \"#utility.yul\":689:694   */\n      dup3\n        /* \"#utility.yul\":656:695   */\n      tag_13\n      jump\t// in\n    tag_35:\n        /* \"#utility.yul\":711:782   */\n      tag_36\n        /* \"#utility.yul\":775:781   */\n      dup2\n        /* \"#utility.yul\":770:773   */\n      dup6\n        /* \"#utility.yul\":711:782   */\n      tag_14\n      jump\t// in\n    tag_36:\n        /* \"#utility.yul\":704:782   */\n      swap4\n      pop\n        /* \"#utility.yul\":791:856   */\n      tag_37\n        /* \"#utility.yul\":849:855   */\n      dup2\n        /* \"#utility.yul\":844:847   */\n      dup6\n        /* \"#utility.yul\":837:841   */\n      0x20\n        /* \"#utility.yul\":830:835   */\n      dup7\n        /* \"#utility.yul\":826:842   */\n      add\n        /* \"#utility.yul\":791:856   */\n      tag_15\n      jump\t// in\n    tag_37:\n        /* \"#utility.yul\":881:910   */\n      tag_38\n        /* \"#utility.yul\":903:909   */\n      dup2\n        /* \"#utility.yul\":881:910   */\n      tag_16\n      jump\t// in\n    tag_38:\n        /* \"#utility.yul\":876:879   */\n      dup5\n        /* \"#utility.yul\":872:911   */\n      add\n        /* \"#utility.yul\":865:911   */\n      swap2\n      pop\n        /* \"#utility.yul\":632:917   */\n      pop\n        /* \"#utility.yul\":540:917   */\n      swap3\n      swap2\n      pop\n      pop\n      jump\t// out\n        /* \"#utility.yul\":923:1236   */\n    tag_7:\n        /* \"#utility.yul\":1036:1040   */\n      0x00\n        /* \"#utility.yul\":1074:1076   */\n      0x20\n        /* \"#utility.yul\":1063:1072   */\n      dup3\n        /* \"#utility.yul\":1059:1077   */\n      add\n        /* \"#utility.yul\":1051:1077   */\n      swap1\n      pop\n        /* \"#utility.yul\":1123:1132   */\n      dup2\n        /* \"#utility.yul\":1117:1121   */\n      dup2\n        /* \"#utility.yul\":1113:1133   */\n      sub\n        /* \"#utility.yul\":1109:1110   */\n      0x00\n        /* \"#utility.yul\":1098:1107   */\n      dup4\n        /* \"#utility.yul\":1094:1111   */\n      add\n        /* \"#utility.yul\":1087:1134   */\n      mstore\n        /* \"#utility.yul\":1151:1229   */\n      tag_40\n        /* \"#utility.yul\":1224:1228   */\n      dup2\n        /* \"#utility.yul\":1215:1221   */\n      dup5\n        /* \"#utility.yul\":1151:1229   */\n      tag_17\n      jump\t// in\n    tag_40:\n        /* \"#utility.yul\":1143:1229   */\n      swap1\n      pop\n        /* \"#utility.yul\":923:1236   */\n      swap3\n      swap2\n      pop\n      pop\n      jump\t// out\n        /* \"#utility.yul\":1242:1317   */\n    tag_18:\n        /* \"#utility.yul\":1275:1281   */\n      0x00\n        /* \"#utility.yul\":1308:1310   */\n      0x40\n        /* \"#utility.yul\":1302:1311   */\n      mload\n        /* \"#utility.yul\":1292:1311   */\n      swap1\n      pop\n        /* \"#utility.yul\":1242:1317   */\n      swap1\n      jump\t// out\n        /* \"#utility.yul\":1323:1440   */\n    tag_19:\n        /* \"#utility.yul\":1432:1433   */\n      0x00\n        /* \"#utility.yul\":1429:1430   */\n      dup1\n        /* \"#utility.yul\":1422:1434   */\n      revert\n        /* \"#utility.yul\":1446:1563   */\n    tag_20:\n        /* \"#utility.yul\":1555:1556   */\n      0x00\n        /* \"#utility.yul\":1552:1553   */\n      dup1\n        /* \"#utility.yul\":1545:1557   */\n      revert\n        /* \"#utility.yul\":1569:1686   */\n    tag_21:\n        /* \"#utility.yul\":1678:1679   */\n      0x00\n        /* \"#utility.yul\":1675:1676   */\n      dup1\n        /* \"#utility.yul\":1668:1680   */\n      revert\n        /* \"#utility.yul\":1692:1809   */\n    tag_22:\n        /* \"#utility.yul\":1801:1802   */\n      0x00\n        /* \"#utility.yul\":1798:1799   */\n      dup1\n        /* \"#utility.yul\":1791:1803   */\n      revert\n        /* \"#utility.yul\":1815:1995   */\n    tag_23:\n        /* \"#utility.yul\":1863:1940   */\n      0x4e487b7100000000000000000000000000000000000000000000000000000000\n        /* \"#utility.yul\":1860:1861   */\n      0x00\n        /* \"#utility.yul\":1853:1941   */\n      mstore\n        /* \"#utility.yul\":1960:1964   */\n      0x41\n        /* \"#utility.yul\":1957:1958   */\n      0x04\n        /* \"#utility.yul\":1950:1965   */\n      mstore\n        /* \"#utility.yul\":1984:1988   */\n      0x24\n        /* \"#utility.yul\":1981:1982   */\n      0x00\n        /* \"#utility.yul\":1974:1989   */\n      revert\n        /* \"#utility.yul\":2001:2282   */\n    tag_24:\n        /* \"#utility.yul\":2084:2111   */\n      tag_48\n        /* \"#utility.yul\":2106:2110   */\n      dup3\n        /* \"#utility.yul\":2084:2111   */\n      tag_16\n      jump\t// in\n    tag_48:\n        /* \"#utility.yul\":2076:2082   */\n      dup2\n        /* \"#utility.yul\":2072:2112   */\n      add\n        /* \"#utility.yul\":2214:2220   */\n      dup2\n        /* \"#utility.yul\":2202:2212   */\n      dup2\n        /* \"#utility.yul\":2199:2221   */\n      lt\n        /* \"#utility.yul\":2178:2196   */\n      0xffffffffffffffff\n        /* \"#utility.yul\":2166:2176   */\n      dup3\n        /* \"#utility.yul\":2163:2197   */\n      gt\n        /* \"#utility.yul\":2160:2222   */\n      or\n        /* \"#utility.yul\":2157:2245   */\n      iszero\n      tag_49\n      jumpi\n        /* \"#utility.yul\":2225:2243   */\n      tag_50\n      tag_23\n      jump\t// in\n    tag_50:\n        /* \"#utility.yul\":2157:2245   */\n    tag_49:\n        /* \"#utility.yul\":2265:2275   */\n      dup1\n        /* \"#utility.yul\":2261:2263   */\n      0x40\n        /* \"#utility.yul\":2254:2276   */\n      mstore\n        /* \"#utility.yul\":2044:2282   */\n      pop\n        /* \"#utility.yul\":2001:2282   */\n      pop\n      pop\n      jump\t// out\n        /* \"#utility.yul\":2288:2417   */\n    tag_25:\n        /* \"#utility.yul\":2322:2328   */\n      0x00\n        /* \"#utility.yul\":2349:2369   */\n      tag_52\n      tag_18\n      jump\t// in\n    tag_52:\n        /* \"#utility.yul\":2339:2369   */\n      swap1\n      pop\n        /* \"#utility.yul\":2378:2411   */\n      tag_53\n        /* \"#utility.yul\":2406:2410   */\n      dup3\n        /* \"#utility.yul\":2398:2404   */\n      dup3\n        /* \"#utility.yul\":2378:2411   */\n      tag_24\n      jump\t// in\n    tag_53:\n        /* \"#utility.yul\":2288:2417   */\n      swap2\n      swap1\n      pop\n      jump\t// out\n        /* \"#utility.yul\":2423:2731   */\n    tag_26:\n        /* \"#utility.yul\":2485:2489   */\n      0x00\n        /* \"#utility.yul\":2575:2593   */\n      0xffffffffffffffff\n        /* \"#utility.yul\":2567:2573   */\n      dup3\n        /* \"#utility.yul\":2564:2594   */\n      gt\n        /* \"#utility.yul\":2561:2617   */\n      iszero\n      tag_55\n      jumpi\n        /* \"#utility.yul\":2597:2615   */\n      tag_56\n      tag_23\n      jump\t// in\n    tag_56:\n        /* \"#utility.yul\":2561:2617   */\n    tag_55:\n        /* \"#utility.yul\":2635:2664   */\n      tag_57\n        /* \"#utility.yul\":2657:2663   */\n      dup3\n        /* \"#utility.yul\":2635:2664   */\n      tag_16\n      jump\t// in\n    tag_57:\n        /* \"#utility.yul\":2627:2664   */\n      swap1\n      pop\n        /* \"#utility.yul\":2719:2723   */\n      0x20\n        /* \"#utility.yul\":2713:2717   */\n      dup2\n        /* \"#utility.yul\":2709:2724   */\n      add\n        /* \"#utility.yul\":2701:2724   */\n      swap1\n      pop\n        /* \"#utility.yul\":2423:2731   */\n      swap2\n      swap1\n      pop\n      jump\t// out\n        /* \"#utility.yul\":2737:3171   */\n    tag_27:\n        /* \"#utility.yul\":2826:2831   */\n      0x00\n        /* \"#utility.yul\":2851:2917   */\n      tag_59\n        /* \"#utility.yul\":2867:2916   */\n      tag_60\n        /* \"#utility.yul\":2909:2915   */\n      dup5\n        /* \"#utility.yul\":2867:2916   */\n      tag_26\n      jump\t// in\n    tag_60:\n        /* \"#utility.yul\":2851:2917   */\n      tag_25\n      jump\t// in\n    tag_59:\n        /* \"#utility.yul\":2842:2917   */\n      swap1\n      pop\n        /* \"#utility.yul\":2940:2946   */\n      dup3\n        /* \"#utility.yul\":2933:2938   */\n      dup2\n        /* \"#utility.yul\":2926:2947   */\n      mstore\n        /* \"#utility.yul\":2978:2982   */\n      0x20\n        /* \"#utility.yul\":2971:2976   */\n      dup2\n        /* \"#utility.yul\":2967:2983   */\n      add\n        /* \"#utility.yul\":3016:3019   */\n      dup5\n        /* \"#utility.yul\":3007:3013   */\n      dup5\n        /* \"#utility.yul\":3002:3005   */\n      dup5\n        /* \"#utility.yul\":2998:3014   */\n      add\n        /* \"#utility.yul\":2995:3020   */\n      gt\n        /* \"#utility.yul\":2992:3104   */\n      iszero\n      tag_61\n      jumpi\n        /* \"#utility.yul\":3023:3102   */\n      tag_62\n      tag_22\n      jump\t// in\n    tag_62:\n        /* \"#utility.yul\":2992:3104   */\n    tag_61:\n        /* \"#utility.yul\":3113:3165   */\n      tag_63\n        /* \"#utility.yul\":3158:3164   */\n      dup5\n        /* \"#utility.yul\":3153:3156   */\n      dup3\n        /* \"#utility.yul\":3148:3151   */\n      dup6\n        /* \"#utility.yul\":3113:3165   */\n      tag_15\n      jump\t// in\n    tag_63:\n        /* \"#utility.yul\":2832:3171   */\n      pop\n        /* \"#utility.yul\":2737:3171   */\n      swap4\n      swap3\n      pop\n      pop\n      pop\n      jump\t// out\n        /* \"#utility.yul\":3191:3546   */\n    tag_28:\n        /* \"#utility.yul\":3258:3263   */\n      0x00\n        /* \"#utility.yul\":3307:3310   */\n      dup3\n        /* \"#utility.yul\":3300:3304   */\n      0x1f\n        /* \"#utility.yul\":3292:3298   */\n      dup4\n        /* \"#utility.yul\":3288:3305   */\n      add\n        /* \"#utility.yul\":3284:3311   */\n      slt\n        /* \"#utility.yul\":3274:3396   */\n      tag_65\n      jumpi\n        /* \"#utility.yul\":3315:3394   */\n      tag_66\n      tag_21\n      jump\t// in\n    tag_66:\n        /* \"#utility.yul\":3274:3396   */\n    tag_65:\n        /* \"#utility.yul\":3425:3431   */\n      dup2\n        /* \"#utility.yul\":3419:3432   */\n      mload\n        /* \"#utility.yul\":3450:3540   */\n      tag_67\n        /* \"#utility.yul\":3536:3539   */\n      dup5\n        /* \"#utility.yul\":3528:3534   */\n      dup3\n        /* \"#utility.yul\":3521:3525   */\n      0x20\n        /* \"#utility.yul\":3513:3519   */\n      dup7\n        /* \"#utility.yul\":3509:3526   */\n      add\n        /* \"#utility.yul\":3450:3540   */\n      tag_27\n      jump\t// in\n    tag_67:\n        /* \"#utility.yul\":3441:3540   */\n      swap2\n      pop\n        /* \"#utility.yul\":3264:3546   */\n      pop\n        /* \"#utility.yul\":3191:3546   */\n      swap3\n      swap2\n      pop\n      pop\n      jump\t// out\n        /* \"#utility.yul\":3552:4076   */\n    tag_12:\n        /* \"#utility.yul\":3632:3638   */\n      0x00\n        /* \"#utility.yul\":3681:3683   */\n      0x20\n        /* \"#utility.yul\":3669:3678   */\n      dup3\n        /* \"#utility.yul\":3660:3667   */\n      dup5\n        /* \"#utility.yul\":3656:3679   */\n      sub\n        /* \"#utility.yul\":3652:3684   */\n      slt\n        /* \"#utility.yul\":3649:3768   */\n      iszero\n      tag_69\n      jumpi\n        /* \"#utility.yul\":3687:3766   */\n      tag_70\n      tag_19\n      jump\t// in\n    tag_70:\n        /* \"#utility.yul\":3649:3768   */\n    tag_69:\n        /* \"#utility.yul\":3828:3829   */\n      0x00\n        /* \"#utility.yul\":3817:3826   */\n      dup3\n        /* \"#utility.yul\":3813:3830   */\n      add\n        /* \"#utility.yul\":3807:3831   */\n      mload\n        /* \"#utility.yul\":3858:3876   */\n      0xffffffffffffffff\n        /* \"#utility.yul\":3850:3856   */\n      dup2\n        /* \"#utility.yul\":3847:3877   */\n      gt\n        /* \"#utility.yul\":3844:3961   */\n      iszero\n      tag_71\n      jumpi\n        /* \"#utility.yul\":3880:3959   */\n      tag_72\n      tag_20\n      jump\t// in\n    tag_72:\n        /* \"#utility.yul\":3844:3961   */\n    tag_71:\n        /* \"#utility.yul\":3985:4059   */\n      tag_73\n        /* \"#utility.yul\":4051:4058   */\n      dup5\n        /* \"#utility.yul\":4042:4048   */\n      dup3\n        /* \"#utility.yul\":4031:4040   */\n      dup6\n        /* \"#utility.yul\":4027:4049   */\n      add\n        /* \"#utility.yul\":3985:4059   */\n      tag_28\n      jump\t// in\n    tag_73:\n        /* \"#utility.yul\":3975:4059   */\n      swap2\n      pop\n        /* \"#utility.yul\":3778:4069   */\n      pop\n        /* \"#utility.yul\":3552:4076   */\n      swap3\n      swap2\n      pop\n      pop\n      jump\t// out\n\n    auxdata: 0xa26469706673582212208673ea6a297d28428d100dccb13fe2cc6eb3486c3abc583fc6ed544bc5999c7164736f6c634300081a0033\n}\n",
				"bytecode": {
					"linkReferences": {},
					"object": "608060405234801561000f575f80fd5b50604051610429380380610429833981810160405281019061003191906100d4565b805f806101000a81548173ffffffffffffffffffffffffffffffffffffffff021916908373ffffffffffffffffffffffffffffffffffffffff160217905550506100ff565b5f80fd5b5f73ffffffffffffffffffffffffffffffffffffffff82169050919050565b5f6100a38261007a565b9050919050565b6100b381610099565b81146100bd575f80fd5b50565b5f815190506100ce816100aa565b92915050565b5f602082840312156100e9576100e8610076565b5b5f6100f6848285016100c0565b91505092915050565b61031d8061010c5f395ff3fe608060405234801561000f575f80fd5b5060043610610029575f3560e01c8063443376271461002d575b5f80fd5b61003561004b565b6040516100429190610151565b60405180910390f35b60605f8054906101000a900473ffffffffffffffffffffffffffffffffffffffff1673ffffffffffffffffffffffffffffffffffffffff16631ae466ba6040518163ffffffff1660e01b81526004015f60405180830381865afa1580156100b4573d5f803e3d5ffd5b505050506040513d5f823e3d601f19601f820116820180604052508101906100dc91906102a0565b905090565b5f81519050919050565b5f82825260208201905092915050565b8281835e5f83830152505050565b5f601f19601f8301169050919050565b5f610123826100e1565b61012d81856100eb565b935061013d8185602086016100fb565b61014681610109565b840191505092915050565b5f6020820190508181035f8301526101698184610119565b905092915050565b5f604051905090565b5f80fd5b5f80fd5b5f80fd5b5f80fd5b7f4e487b71000000000000000000000000000000000000000000000000000000005f52604160045260245ffd5b6101c082610109565b810181811067ffffffffffffffff821117156101df576101de61018a565b5b80604052505050565b5f6101f1610171565b90506101fd82826101b7565b919050565b5f67ffffffffffffffff82111561021c5761021b61018a565b5b61022582610109565b9050602081019050919050565b5f61024461023f84610202565b6101e8565b9050828152602081018484840111156102605761025f610186565b5b61026b8482856100fb565b509392505050565b5f82601f83011261028757610286610182565b5b8151610297848260208601610232565b91505092915050565b5f602082840312156102b5576102b461017a565b5b5f82015167ffffffffffffffff8111156102d2576102d161017e565b5b6102de84828501610273565b9150509291505056fea26469706673582212208673ea6a297d28428d100dccb13fe2cc6eb3486c3abc583fc6ed544bc5999c7164736f6c634300081a0033",
					"opcodes": "PUSH1 0x80 PUSH1 0x40 MSTORE CALLVALUE DUP1 ISZERO PUSH2 0xF JUMPI PUSH0 DUP1 REVERT JUMPDEST POP PUSH1 0x40 MLOAD PUSH2 0x429 CODESIZE SUB DUP1 PUSH2 0x429 DUP4 CODECOPY DUP2 DUP2 ADD PUSH1 0x40 MSTORE DUP2 ADD SWAP1 PUSH2 0x31 SWAP2 SWAP1 PUSH2 0xD4 JUMP JUMPDEST DUP1 PUSH0 DUP1 PUSH2 0x100 EXP DUP2 SLOAD DUP2 PUSH20 0xFFFFFFFFFFFFFFFFFFFFFFFFFFFFFFFFFFFFFFFF MUL NOT AND SWAP1 DUP4 PUSH20 0xFFFFFFFFFFFFFFFFFFFFFFFFFFFFFFFFFFFFFFFF AND MUL OR SWAP1 SSTORE POP POP PUSH2 0xFF JUMP JUMPDEST PUSH0 DUP1 REVERT JUMPDEST PUSH0 PUSH20 0xFFFFFFFFFFFFFFFFFFFFFFFFFFFFFFFFFFFFFFFF DUP3 AND SWAP1 POP SWAP2 SWAP1 POP JUMP JUMPDEST PUSH0 PUSH2 0xA3 DUP3 PUSH2 0x7A JUMP JUMPDEST SWAP1 POP SWAP2 SWAP1 POP JUMP JUMPDEST PUSH2 0xB3 DUP2 PUSH2 0x99 JUMP JUMPDEST DUP2 EQ PUSH2 0xBD JUMPI PUSH0 DUP1 REVERT JUMPDEST POP JUMP JUMPDEST PUSH0 DUP2 MLOAD SWAP1 POP PUSH2 0xCE DUP2 PUSH2 0xAA JUMP JUMPDEST SWAP3 SWAP2 POP POP JUMP JUMPDEST PUSH0 PUSH1 0x20 DUP3 DUP5 SUB SLT ISZERO PUSH2 0xE9 JUMPI PUSH2 0xE8 PUSH2 0x76 JUMP JUMPDEST JUMPDEST PUSH0 PUSH2 0xF6 DUP5 DUP3 DUP6 ADD PUSH2 0xC0 JUMP JUMPDEST SWAP2 POP POP SWAP3 SWAP2 POP POP JUMP JUMPDEST PUSH2 0x31D DUP1 PUSH2 0x10C PUSH0 CODECOPY PUSH0 RETURN INVALID PUSH1 0x80 PUSH1 0x40 MSTORE CALLVALUE DUP1 ISZERO PUSH2 0xF JUMPI PUSH0 DUP1 REVERT JUMPDEST POP PUSH1 0x4 CALLDATASIZE LT PUSH2 0x29 JUMPI PUSH0 CALLDATALOAD PUSH1 0xE0 SHR DUP1 PUSH4 0x44337627 EQ PUSH2 0x2D JUMPI JUMPDEST PUSH0 DUP1 REVERT JUMPDEST PUSH2 0x35 PUSH2 0x4B JUMP JUMPDEST PUSH1 0x40 MLOAD PUSH2 0x42 SWAP2 SWAP1 PUSH2 0x151 JUMP JUMPDEST PUSH1 0x40 MLOAD DUP1 SWAP2 SUB SWAP1 RETURN JUMPDEST PUSH1 0x60 PUSH0 DUP1 SLOAD SWAP1 PUSH2 0x100 EXP SWAP1 DIV PUSH20 0xFFFFFFFFFFFFFFFFFFFFFFFFFFFFFFFFFFFFFFFF AND PUSH20 0xFFFFFFFFFFFFFFFFFFFFFFFFFFFFFFFFFFFFFFFF AND PUSH4 0x1AE466BA PUSH1 0x40 MLOAD DUP2 PUSH4 0xFFFFFFFF AND PUSH1 0xE0 SHL DUP2 MSTORE PUSH1 0x4 ADD PUSH0 PUSH1 0x40 MLOAD DUP1 DUP4 SUB DUP2 DUP7 GAS STATICCALL ISZERO DUP1 ISZERO PUSH2 0xB4 JUMPI RETURNDATASIZE PUSH0 DUP1 RETURNDATACOPY RETURNDATASIZE PUSH0 REVERT JUMPDEST POP POP POP POP PUSH1 0x40 MLOAD RETURNDATASIZE PUSH0 DUP3 RETURNDATACOPY RETURNDATASIZE PUSH1 0x1F NOT PUSH1 0x1F DUP3 ADD AND DUP3 ADD DUP1 PUSH1 0x40 MSTORE POP DUP2 ADD SWAP1 PUSH2 0xDC SWAP2 SWAP1 PUSH2 0x2A0 JUMP JUMPDEST SWAP1 POP SWAP1 JUMP JUMPDEST PUSH0 DUP2 MLOAD SWAP1 POP SWAP2 SWAP1 POP JUMP JUMPDEST PUSH0 DUP3 DUP3 MSTORE PUSH1 0x20 DUP3 ADD SWAP1 POP SWAP3 SWAP2 POP POP JUMP JUMPDEST DUP3 DUP2 DUP4 MCOPY PUSH0 DUP4 DUP4 ADD MSTORE POP POP POP JUMP JUMPDEST PUSH0 PUSH1 0x1F NOT PUSH1 0x1F DUP4 ADD AND SWAP1 POP SWAP2 SWAP1 POP JUMP JUMPDEST PUSH0 PUSH2 0x123 DUP3 PUSH2 0xE1 JUMP JUMPDEST PUSH2 0x12D DUP2 DUP6 PUSH2 0xEB JUMP JUMPDEST SWAP4 POP PUSH2 0x13D DUP2 DUP6 PUSH1 0x20 DUP7 ADD PUSH2 0xFB JUMP JUMPDEST PUSH2 0x146 DUP2 PUSH2 0x109 JUMP JUMPDEST DUP5 ADD SWAP2 POP POP SWAP3 SWAP2 POP POP JUMP JUMPDEST PUSH0 PUSH1 0x20 DUP3 ADD SWAP1 POP DUP2 DUP2 SUB PUSH0 DUP4 ADD MSTORE PUSH2 0x169 DUP2 DUP5 PUSH2 0x119 JUMP JUMPDEST SWAP1 POP SWAP3 SWAP2 POP POP JUMP JUMPDEST PUSH0 PUSH1 0x40 MLOAD SWAP1 POP SWAP1 JUMP JUMPDEST PUSH0 DUP1 REVERT JUMPDEST PUSH0 DUP1 REVERT JUMPDEST PUSH0 DUP1 REVERT JUMPDEST PUSH0 DUP1 REVERT JUMPDEST PUSH32 0x4E487B7100000000000000000000000000000000000000000000000000000000 PUSH0 MSTORE PUSH1 0x41 PUSH1 0x4 MSTORE PUSH1 0x24 PUSH0 REVERT JUMPDEST PUSH2 0x1C0 DUP3 PUSH2 0x109 JUMP JUMPDEST DUP2 ADD DUP2 DUP2 LT PUSH8 0xFFFFFFFFFFFFFFFF DUP3 GT OR ISZERO PUSH2 0x1DF JUMPI PUSH2 0x1DE PUSH2 0x18A JUMP JUMPDEST JUMPDEST DUP1 PUSH1 0x40 MSTORE POP POP POP JUMP JUMPDEST PUSH0 PUSH2 0x1F1 PUSH2 0x171 JUMP JUMPDEST SWAP1 POP PUSH2 0x1FD DUP3 DUP3 PUSH2 0x1B7 JUMP JUMPDEST SWAP2 SWAP1 POP JUMP JUMPDEST PUSH0 PUSH8 0xFFFFFFFFFFFFFFFF DUP3 GT ISZERO PUSH2 0x21C JUMPI PUSH2 0x21B PUSH2 0x18A JUMP JUMPDEST JUMPDEST PUSH2 0x225 DUP3 PUSH2 0x109 JUMP JUMPDEST SWAP1 POP PUSH1 0x20 DUP2 ADD SWAP1 POP SWAP2 SWAP1 POP JUMP JUMPDEST PUSH0 PUSH2 0x244 PUSH2 0x23F DUP5 PUSH2 0x202 JUMP JUMPDEST PUSH2 0x1E8 JUMP JUMPDEST SWAP1 POP DUP3 DUP2 MSTORE PUSH1 0x20 DUP2 ADD DUP5 DUP5 DUP5 ADD GT ISZERO PUSH2 0x260 JUMPI PUSH2 0x25F PUSH2 0x186 JUMP JUMPDEST JUMPDEST PUSH2 0x26B DUP5 DUP3 DUP6 PUSH2 0xFB JUMP JUMPDEST POP SWAP4 SWAP3 POP POP POP JUMP JUMPDEST PUSH0 DUP3 PUSH1 0x1F DUP4 ADD SLT PUSH2 0x287 JUMPI PUSH2 0x286 PUSH2 0x182 JUMP JUMPDEST JUMPDEST DUP2 MLOAD PUSH2 0x297 DUP5 DUP3 PUSH1 0x20 DUP7 ADD PUSH2 0x232 JUMP JUMPDEST SWAP2 POP POP SWAP3 SWAP2 POP POP JUMP JUMPDEST PUSH0 PUSH1 0x20 DUP3 DUP5 SUB SLT ISZERO PUSH2 0x2B5 JUMPI PUSH2 0x2B4 PUSH2 0x17A JUMP JUMPDEST JUMPDEST PUSH0 DUP3 ADD MLOAD PUSH8 0xFFFFFFFFFFFFFFFF DUP2 GT ISZERO PUSH2 0x2D2 JUMPI PUSH2 0x2D1 PUSH2 0x17E JUMP JUMPDEST JUMPDEST PUSH2 0x2DE DUP5 DUP3 DUP6 ADD PUSH2 0x273 JUMP JUMPDEST SWAP2 POP POP SWAP3 SWAP2 POP POP JUMP INVALID LOG2 PUSH5 0x6970667358 0x22 SLT KECCAK256 DUP7 PUSH20 0xEA6A297D28428D100DCCB13FE2CC6EB3486C3ABC PC EXTCODEHASH 0xC6 0xED SLOAD 0x4B 0xC5 SWAP10 SWAP13 PUSH18 0x64736F6C634300081A003300000000000000 "
				},
				"gasEstimates": {
					"creation": {
						"codeDepositCost": "159400",
						"executionCost": "infinite",
						"totalCost": "infinite"
					},
					"external": {
						"getcontractmessage()": "infinite"
					}
				},
				"methodIdentifiers": {
					"getcontractmessage()": "44337627"
				}
			},
			"storageLayout": {
				"storage": [
					{
						"astId": 9,
						"contract": "contracts/contract2.sol:parentcontract",
						"label": "contractaddress",
						"offset": 0,
						"slot": "0",
						"type": "t_address"
					}
				],
				"types": {
					"t_address": {
						"encoding": "inplace",
						"label": "address",
						"numberOfBytes": "20"
					}
				}
			},
			"userdoc": {
				"kind": "user",
				"methods": {},
				"version": 1
			}
		}
	}
}